{
  "_format": "hh-sol-artifact-1",
  "contractName": "Cryrdle",
  "sourceName": "contracts/Cryrdle.sol",
  "abi": [
    {
      "inputs": [],
      "stateMutability": "nonpayable",
      "type": "constructor"
    },
    {
      "inputs": [],
      "name": "lowScore",
      "type": "error"
    },
    {
      "inputs": [],
      "name": "noPrizePool",
      "type": "error"
    },
    {
      "inputs": [],
      "name": "noScore",
      "type": "error"
    },
    {
      "inputs": [],
      "name": "notEqualFee",
      "type": "error"
    },
    {
      "inputs": [],
      "name": "notPaidFee",
      "type": "error"
    },
    {
      "anonymous": false,
      "inputs": [
        {
          "indexed": true,
          "internalType": "address",
          "name": "participant",
          "type": "address"
        }
      ],
      "name": "CryrdleJoined",
      "type": "event"
    },
    {
      "anonymous": false,
      "inputs": [
        {
          "indexed": true,
          "internalType": "uint256",
          "name": "requestId",
          "type": "uint256"
        }
      ],
      "name": "RequestedRaffleWinner",
      "type": "event"
    },
    {
      "inputs": [
        {
          "internalType": "address",
          "name": "_participant",
          "type": "address"
        },
        {
          "internalType": "uint256",
          "name": "points",
          "type": "uint256"
        }
      ],
      "name": "addPoints",
      "outputs": [],
      "stateMutability": "nonpayable",
      "type": "function"
    },
    {
      "inputs": [],
      "name": "gameAcc",
      "outputs": [
        {
          "internalType": "address",
          "name": "",
          "type": "address"
        }
      ],
      "stateMutability": "view",
      "type": "function"
    },
    {
      "inputs": [],
      "name": "gameBal",
      "outputs": [
        {
          "internalType": "uint256",
          "name": "",
          "type": "uint256"
        }
      ],
      "stateMutability": "view",
      "type": "function"
    },
    {
      "inputs": [],
      "name": "getHighScore",
      "outputs": [
        {
          "internalType": "uint256",
          "name": "",
          "type": "uint256"
        }
      ],
      "stateMutability": "view",
      "type": "function"
    },
    {
      "inputs": [],
      "name": "getParticipants",
      "outputs": [
        {
          "internalType": "address[]",
          "name": "",
          "type": "address[]"
        }
      ],
      "stateMutability": "view",
      "type": "function"
    },
    {
      "inputs": [],
      "name": "getParticipationFee",
      "outputs": [
        {
          "internalType": "uint256",
          "name": "",
          "type": "uint256"
        }
      ],
      "stateMutability": "view",
      "type": "function"
    },
    {
      "inputs": [
        {
          "internalType": "address",
          "name": "playerAddress",
          "type": "address"
        }
      ],
      "name": "getPlayerDayPointBalance",
      "outputs": [
        {
          "internalType": "uint256",
          "name": "",
          "type": "uint256"
        }
      ],
      "stateMutability": "view",
      "type": "function"
    },
    {
      "inputs": [
        {
          "internalType": "address",
          "name": "playerAddress",
          "type": "address"
        }
      ],
      "name": "getPlayerTotalPointBalance",
      "outputs": [
        {
          "internalType": "uint256",
          "name": "",
          "type": "uint256"
        }
      ],
      "stateMutability": "view",
      "type": "function"
    },
    {
      "inputs": [],
      "name": "getRewardPerWinner",
      "outputs": [
        {
          "internalType": "uint256",
          "name": "",
          "type": "uint256"
        }
      ],
      "stateMutability": "view",
      "type": "function"
    },
    {
      "inputs": [],
      "name": "getWinners",
      "outputs": [
        {
          "internalType": "address[]",
          "name": "",
          "type": "address[]"
        }
      ],
      "stateMutability": "view",
      "type": "function"
    },
    {
      "inputs": [],
      "name": "highscore",
      "outputs": [
        {
          "internalType": "uint256",
          "name": "",
          "type": "uint256"
        }
      ],
      "stateMutability": "view",
      "type": "function"
    },
    {
      "inputs": [],
      "name": "joinCryrdle",
      "outputs": [],
      "stateMutability": "payable",
      "type": "function"
    },
    {
      "inputs": [],
      "name": "payWinner",
      "outputs": [],
      "stateMutability": "payable",
      "type": "function"
    }
  ],
  "bytecode": "0x60a060405234801561001057600080fd5b50336000806101000a81548173ffffffffffffffffffffffffffffffffffffffff021916908373ffffffffffffffffffffffffffffffffffffffff160217905550600060018190555066038d7ea4c680006080818152505060805161103061008a6000396000818161072d015261075901526110306000f3fe6080604052600436106100c25760003560e01c8063863fc11e1161007f578063be71248a11610059578063be71248a14610239578063db70525414610243578063df15c37e1461026e578063e40e93d514610299576100c2565b8063863fc11e146101d95780638d8981b414610204578063959824d71461022f576100c2565b80633824ea31146100c7578063507cd30f146100f25780635142839f1461011b5780635aa0f9eb146101585780635aa68ac01461018357806364c8ec0c146101ae575b600080fd5b3480156100d357600080fd5b506100dc6102d6565b6040516100e99190610c70565b60405180910390f35b3480156100fe57600080fd5b5061011960048036038101906101149190610d1a565b6102e0565b005b34801561012757600080fd5b50610142600480360381019061013d9190610d5a565b610642565b60405161014f9190610c70565b60405180910390f35b34801561016457600080fd5b5061016d61068b565b60405161017a9190610c70565b60405180910390f35b34801561018f57600080fd5b50610198610691565b6040516101a59190610e45565b60405180910390f35b3480156101ba57600080fd5b506101c361071f565b6040516101d09190610c70565b60405180910390f35b3480156101e557600080fd5b506101ee610729565b6040516101fb9190610c70565b60405180910390f35b34801561021057600080fd5b50610219610751565b6040516102269190610c70565b60405180910390f35b610237610757565b005b6102416108c9565b005b34801561024f57600080fd5b50610258610a79565b6040516102659190610e76565b60405180910390f35b34801561027a57600080fd5b50610283610a9d565b6040516102909190610e45565b60405180910390f35b3480156102a557600080fd5b506102c060048036038101906102bb9190610d5a565b610b67565b6040516102cd9190610c70565b60405180910390f35b6000600454905090565b60011515600960008473ffffffffffffffffffffffffffffffffffffffff1673ffffffffffffffffffffffffffffffffffffffff16815260200190815260200160002060009054906101000a900460ff1615151461036a576040517f9fa61b6b00000000000000000000000000000000000000000000000000000000815260040160405180910390fd5b80600860008473ffffffffffffffffffffffffffffffffffffffff1673ffffffffffffffffffffffffffffffffffffffff16815260200190815260200160002060008282546103b99190610ec0565b9250508190555080600760008473ffffffffffffffffffffffffffffffffffffffff1673ffffffffffffffffffffffffffffffffffffffff168152602001908152602001600020600082825461040f9190610ec0565b92505081905550600454600860008473ffffffffffffffffffffffffffffffffffffffff1673ffffffffffffffffffffffffffffffffffffffff168152602001908152602001600020541015610491576040517f36a5e99400000000000000000000000000000000000000000000000000000000815260040160405180910390fd5b600454600860008473ffffffffffffffffffffffffffffffffffffffff1673ffffffffffffffffffffffffffffffffffffffff168152602001908152602001600020540361055a576005829080600181540180825580915050600190039060005260206000200160009091909190916101000a81548173ffffffffffffffffffffffffffffffffffffffff021916908373ffffffffffffffffffffffffffffffffffffffff16021790555060058054905060015461054f9190610f23565b60038190555061063e565b80600481905550600067ffffffffffffffff81111561057c5761057b610f54565b5b6040519080825280602002602001820160405280156105aa5781602001602082028036833780820191505090505b50600590805190602001906105c0929190610bb0565b506005829080600181540180825580915050600190039060005260206000200160009091909190916101000a81548173ffffffffffffffffffffffffffffffffffffffff021916908373ffffffffffffffffffffffffffffffffffffffff1602179055506005805490506001546106379190610f23565b6003819055505b5050565b6000600760008373ffffffffffffffffffffffffffffffffffffffff1673ffffffffffffffffffffffffffffffffffffffff168152602001908152602001600020549050919050565b60015481565b6060600280548060200260200160405190810160405280929190818152602001828054801561071557602002820191906000526020600020905b8160009054906101000a900473ffffffffffffffffffffffffffffffffffffffff1673ffffffffffffffffffffffffffffffffffffffff16815260200190600101908083116106cb575b5050505050905090565b6000600354905090565b60007f0000000000000000000000000000000000000000000000000000000000000000905090565b60045481565b7f000000000000000000000000000000000000000000000000000000000000000034146107b0576040517f9b0d899a00000000000000000000000000000000000000000000000000000000815260040160405180910390fd5b6002339080600181540180825580915050600190039060005260206000200160009091909190916101000a81548173ffffffffffffffffffffffffffffffffffffffff021916908373ffffffffffffffffffffffffffffffffffffffff16021790555034600160008282546108259190610ec0565b925050819055506001600960003373ffffffffffffffffffffffffffffffffffffffff1673ffffffffffffffffffffffffffffffffffffffff16815260200190815260200160002060006101000a81548160ff0219169083151502179055503373ffffffffffffffffffffffffffffffffffffffff167f970f4396869f233c8ed5d8298cd4c285ad5bb9ee51f3143b146bccad8943903d60405160405180910390a2565b6000341115610904576040517f5b966e5d00000000000000000000000000000000000000000000000000000000815260040160405180910390fd5b60005b6005805490508110156109ae576005818154811061092857610927610f83565b5b9060005260206000200160009054906101000a900473ffffffffffffffffffffffffffffffffffffffff1673ffffffffffffffffffffffffffffffffffffffff166108fc6003549081150290604051600060405180830381858888f1935050505015801561099a573d6000803e3d6000fd5b5080806109a690610fb2565b915050610907565b506000600181905550600067ffffffffffffffff8111156109d2576109d1610f54565b5b604051908082528060200260200182016040528015610a005781602001602082028036833780820191505090505b5060059080519060200190610a16929190610bb0565b50600067ffffffffffffffff811115610a3257610a31610f54565b5b604051908082528060200260200182016040528015610a605781602001602082028036833780820191505090505b5060029080519060200190610a76929190610bb0565b50565b60008054906101000a900473ffffffffffffffffffffffffffffffffffffffff1681565b6060600060035403610adb576040517f6d2c5a5400000000000000000000000000000000000000000000000000000000815260040160405180910390fd5b6005805480602002602001604051908101604052809291908181526020018280548015610b5d57602002820191906000526020600020905b8160009054906101000a900473ffffffffffffffffffffffffffffffffffffffff1673ffffffffffffffffffffffffffffffffffffffff1681526020019060010190808311610b13575b5050505050905090565b6000600860008373ffffffffffffffffffffffffffffffffffffffff1673ffffffffffffffffffffffffffffffffffffffff168152602001908152602001600020549050919050565b828054828255906000526020600020908101928215610c29579160200282015b82811115610c285782518260006101000a81548173ffffffffffffffffffffffffffffffffffffffff021916908373ffffffffffffffffffffffffffffffffffffffff16021790555091602001919060010190610bd0565b5b509050610c369190610c3a565b5090565b5b80821115610c53576000816000905550600101610c3b565b5090565b6000819050919050565b610c6a81610c57565b82525050565b6000602082019050610c856000830184610c61565b92915050565b600080fd5b600073ffffffffffffffffffffffffffffffffffffffff82169050919050565b6000610cbb82610c90565b9050919050565b610ccb81610cb0565b8114610cd657600080fd5b50565b600081359050610ce881610cc2565b92915050565b610cf781610c57565b8114610d0257600080fd5b50565b600081359050610d1481610cee565b92915050565b60008060408385031215610d3157610d30610c8b565b5b6000610d3f85828601610cd9565b9250506020610d5085828601610d05565b9150509250929050565b600060208284031215610d7057610d6f610c8b565b5b6000610d7e84828501610cd9565b91505092915050565b600081519050919050565b600082825260208201905092915050565b6000819050602082019050919050565b610dbc81610cb0565b82525050565b6000610dce8383610db3565b60208301905092915050565b6000602082019050919050565b6000610df282610d87565b610dfc8185610d92565b9350610e0783610da3565b8060005b83811015610e38578151610e1f8882610dc2565b9750610e2a83610dda565b925050600181019050610e0b565b5085935050505092915050565b60006020820190508181036000830152610e5f8184610de7565b905092915050565b610e7081610cb0565b82525050565b6000602082019050610e8b6000830184610e67565b92915050565b7f4e487b7100000000000000000000000000000000000000000000000000000000600052601160045260246000fd5b6000610ecb82610c57565b9150610ed683610c57565b9250828201905080821115610eee57610eed610e91565b5b92915050565b7f4e487b7100000000000000000000000000000000000000000000000000000000600052601260045260246000fd5b6000610f2e82610c57565b9150610f3983610c57565b925082610f4957610f48610ef4565b5b828204905092915050565b7f4e487b7100000000000000000000000000000000000000000000000000000000600052604160045260246000fd5b7f4e487b7100000000000000000000000000000000000000000000000000000000600052603260045260246000fd5b6000610fbd82610c57565b91507fffffffffffffffffffffffffffffffffffffffffffffffffffffffffffffffff8203610fef57610fee610e91565b5b60018201905091905056fea26469706673582212206cc94021c4cbbe029bf5d453f64103740755a66b3960898ae5cd8a85820ab60d64736f6c63430008110033",
  "linkReferences": {},
  "deployedLinkReferences": {}
}